{
    "_format": "hh-sol-artifact-1",
    "contractName": "DisasterManagement",
    "sourceName": "contracts/DisasterManagement.sol",
    "abi": [
        {
            "inputs": [
                {
                    "internalType": "uint256",
                    "name": "id",
                    "type": "uint256"
                },
                {
                    "internalType": "string",
                    "name": "_imageUrl",
                    "type": "string"
                },
                {
                    "internalType": "string",
                    "name": "_timestamp",
                    "type": "string"
                }
            ],
            "name": "addDisasterImage",
            "outputs": [],
            "stateMutability": "nonpayable",
            "type": "function"
        },
        {
            "inputs": [
                {
                    "internalType": "string",
                    "name": "_reporterName",
                    "type": "string"
                },
                {
                    "internalType": "string",
                    "name": "_email",
                    "type": "string"
                },
                {
                    "internalType": "string",
                    "name": "_disasterType",
                    "type": "string"
                },
                {
                    "internalType": "string",
                    "name": "_imgUrl",
                    "type": "string"
                },
                {
                    "internalType": "string",
                    "name": "_latitude",
                    "type": "string"
                },
                {
                    "internalType": "string",
                    "name": "_longitude",
                    "type": "string"
                },
                {
                    "internalType": "string",
                    "name": "_city",
                    "type": "string"
                },
                {
                    "internalType": "string",
                    "name": "_state",
                    "type": "string"
                },
                {
                    "internalType": "string",
                    "name": "_date",
                    "type": "string"
                },
                {
                    "internalType": "string",
                    "name": "_severity",
                    "type": "string"
                },
                {
                    "internalType": "string",
                    "name": "_impact",
                    "type": "string"
                }
            ],
            "name": "createDisasterReport",
            "outputs": [],
            "stateMutability": "nonpayable",
            "type": "function"
        },
        {
            "inputs": [
                {
                    "internalType": "uint256",
                    "name": "id",
                    "type": "uint256"
                },
                {
                    "internalType": "uint256",
                    "name": "imageIndex",
                    "type": "uint256"
                }
            ],
            "name": "deleteDisasterImage",
            "outputs": [],
            "stateMutability": "nonpayable",
            "type": "function"
        },
        {
            "inputs": [
                {
                    "internalType": "uint256",
                    "name": "id",
                    "type": "uint256"
                }
            ],
            "name": "deleteDisasterReport",
            "outputs": [],
            "stateMutability": "nonpayable",
            "type": "function"
        },
        {
            "inputs": [
                {
                    "internalType": "uint256",
                    "name": "id",
                    "type": "uint256"
                }
            ],
            "name": "getDisasterImages",
            "outputs": [
                {
                    "components": [
                        {
                            "internalType": "address",
                            "name": "reporterId",
                            "type": "address"
                        },
                        {
                            "internalType": "string",
                            "name": "timestamp",
                            "type": "string"
                        },
                        {
                            "internalType": "string",
                            "name": "disasterImageUrl",
                            "type": "string"
                        }
                    ],
                    "internalType": "struct DisasterManagement.DisasterImage[]",
                    "name": "",
                    "type": "tuple[]"
                }
            ],
            "stateMutability": "view",
            "type": "function"
        },
        {
            "inputs": [
                {
                    "internalType": "uint256",
                    "name": "_index",
                    "type": "uint256"
                }
            ],
            "name": "getDisasterReport",
            "outputs": [
                {
                    "internalType": "address",
                    "name": "",
                    "type": "address"
                },
                {
                    "internalType": "string",
                    "name": "",
                    "type": "string"
                },
                {
                    "internalType": "string",
                    "name": "",
                    "type": "string"
                },
                {
                    "internalType": "string",
                    "name": "",
                    "type": "string"
                },
                {
                    "internalType": "string",
                    "name": "",
                    "type": "string"
                },
                {
                    "internalType": "string",
                    "name": "",
                    "type": "string"
                },
                {
                    "internalType": "string",
                    "name": "",
                    "type": "string"
                },
                {
                    "internalType": "string",
                    "name": "",
                    "type": "string"
                },
                {
                    "internalType": "string",
                    "name": "",
                    "type": "string"
                },
                {
                    "internalType": "string",
                    "name": "",
                    "type": "string"
                },
                {
                    "internalType": "string",
                    "name": "",
                    "type": "string"
                },
                {
                    "internalType": "string",
                    "name": "",
                    "type": "string"
                }
            ],
            "stateMutability": "view",
            "type": "function"
        },
        {
            "inputs": [],
            "name": "getDisasterReportLength",
            "outputs": [
                {
                    "internalType": "uint256",
                    "name": "",
                    "type": "uint256"
                }
            ],
            "stateMutability": "view",
            "type": "function"
        }
    ],
    "bytecode": "0x608060405260008055348015601357600080fd5b506127d8806100236000396000f3fe608060405234801561001057600080fd5b506004361061007d5760003560e01c8063c03d9f811161005b578063c03d9f81146100ec578063db5b714f14610108578063dd1c4fab14610124578063e975cb081461015f5761007d565b8063098da0b2146100825780636a9c4fb0146100a05780639e35b5ae146100bc575b600080fd5b61008a61017b565b60405161009791906117dc565b60405180910390f35b6100ba60048036038101906100b59190611951565b610184565b005b6100d660048036038101906100d19190611ba5565b610364565b6040516100e39190611dab565b60405180910390f35b61010660048036038101906101019190611ba5565b610594565b005b610122600480360381019061011d9190611dcd565b6109cb565b005b61013e60048036038101906101399190611ba5565b610cae565b6040516101569c9b9a99989796959493929190611e66565b60405180910390f35b61017960048036038101906101749190611f6d565b61142c565b005b60008054905090565b6040518061018001604052803373ffffffffffffffffffffffffffffffffffffffff1681526020018c81526020018b81526020018a815260200189815260200188815260200187815260200186815260200185815260200184815260200183815260200182815250600160008054815260200190815260200160002060008201518160000160006101000a81548173ffffffffffffffffffffffffffffffffffffffff021916908373ffffffffffffffffffffffffffffffffffffffff160217905550602082015181600101908161025c9190612204565b5060408201518160020190816102729190612204565b5060608201518160030190816102889190612204565b50608082015181600401908161029e9190612204565b5060a08201518160050190816102b49190612204565b5060c08201518160060190816102ca9190612204565b5060e08201518160070190816102e09190612204565b506101008201518160080190816102f79190612204565b5061012082015181600901908161030e9190612204565b5061014082015181600a0190816103259190612204565b5061016082015181600b01908161033c9190612204565b5090505060008081548092919061035290612305565b91905055505050505050505050505050565b606060005482106103aa576040517f08c379a00000000000000000000000000000000000000000000000000000000081526004016103a190612399565b60405180910390fd5b60026000838152602001908152602001600020805480602002602001604051908101604052809291908181526020016000905b8282101561058957838290600052602060002090600302016040518060600160405290816000820160009054906101000a900473ffffffffffffffffffffffffffffffffffffffff1673ffffffffffffffffffffffffffffffffffffffff1673ffffffffffffffffffffffffffffffffffffffff16815260200160018201805461046690612027565b80601f016020809104026020016040519081016040528092919081815260200182805461049290612027565b80156104df5780601f106104b4576101008083540402835291602001916104df565b820191906000526020600020905b8154815290600101906020018083116104c257829003601f168201915b505050505081526020016002820180546104f890612027565b80601f016020809104026020016040519081016040528092919081815260200182805461052490612027565b80156105715780601f1061054657610100808354040283529160200191610571565b820191906000526020600020905b81548152906001019060200180831161055457829003601f168201915b505050505081525050815260200190600101906103dd565b505050509050919050565b60005481106105d8576040517f08c379a00000000000000000000000000000000000000000000000000000000081526004016105cf90612399565b60405180910390fd5b6001600082815260200190815260200160002060000160009054906101000a900473ffffffffffffffffffffffffffffffffffffffff1673ffffffffffffffffffffffffffffffffffffffff163373ffffffffffffffffffffffffffffffffffffffff161461067c576040517f08c379a00000000000000000000000000000000000000000000000000000000081526004016106739061242b565b60405180910390fd5b60026000828152602001908152602001600020600061069b91906115fb565b60008190505b60016000546106b0919061244b565b8110156109b057600160006001836106c8919061247f565b8152602001908152602001600020600160008381526020019081526020016000206000820160009054906101000a900473ffffffffffffffffffffffffffffffffffffffff168160000160006101000a81548173ffffffffffffffffffffffffffffffffffffffff021916908373ffffffffffffffffffffffffffffffffffffffff1602179055506001820181600101908161076491906124c9565b506002820181600201908161077991906124c9565b506003820181600301908161078e91906124c9565b50600482018160040190816107a391906124c9565b50600582018160050190816107b891906124c9565b50600682018160060190816107cd91906124c9565b50600782018160070190816107e291906124c9565b50600882018160080190816107f791906124c9565b506009820181600901908161080c91906124c9565b50600a820181600a01908161082191906124c9565b50600b820181600b01908161083691906124c9565b509050506002600060018361084b919061247f565b81526020019081526020016000206002600083815260200190815260200160002090805461087a92919061161f565b5060016000600160005461088e919061244b565b8152602001908152602001600020600080820160006101000a81549073ffffffffffffffffffffffffffffffffffffffff02191690556001820160006108d49190611708565b6002820160006108e49190611708565b6003820160006108f49190611708565b6004820160006109049190611708565b6005820160006109149190611708565b6006820160006109249190611708565b6007820160006109349190611708565b6008820160006109449190611708565b6009820160006109549190611708565b600a820160006109649190611708565b600b820160006109749190611708565b5050600260006001600054610989919061244b565b815260200190815260200160002060006109a391906115fb565b80806001019150506106a1565b506000808154809291906109c3906125b1565b919050555050565b6000548210610a0f576040517f08c379a0000000000000000000000000000000000000000000000000000000008152600401610a0690612626565b60405180910390fd5b6001600083815260200190815260200160002060000160009054906101000a900473ffffffffffffffffffffffffffffffffffffffff1673ffffffffffffffffffffffffffffffffffffffff163373ffffffffffffffffffffffffffffffffffffffff1614610ab3576040517f08c379a0000000000000000000000000000000000000000000000000000000008152600401610aaa906126b8565b60405180910390fd5b60026000838152602001908152602001600020805490508110610b0b576040517f08c379a0000000000000000000000000000000000000000000000000000000008152600401610b0290612724565b60405180910390fd5b6002600083815260200190815260200160002060016002600085815260200190815260200160002080549050610b41919061244b565b81548110610b5257610b51612744565b5b9060005260206000209060030201600260008481526020019081526020016000208281548110610b8557610b84612744565b5b90600052602060002090600302016000820160009054906101000a900473ffffffffffffffffffffffffffffffffffffffff168160000160006101000a81548173ffffffffffffffffffffffffffffffffffffffff021916908373ffffffffffffffffffffffffffffffffffffffff16021790555060018201816001019081610c0e91906124c9565b5060028201816002019081610c2391906124c9565b5090505060026000838152602001908152602001600020805480610c4a57610c49612773565b5b6001900381819060005260206000209060030201600080820160006101000a81549073ffffffffffffffffffffffffffffffffffffffff0219169055600182016000610c969190611708565b600282016000610ca69190611708565b505090555050565b600060608060608060608060608060608060606000548d10610d05576040517f08c379a0000000000000000000000000000000000000000000000000000000008152600401610cfc90612399565b60405180910390fd5b6000600160008f8152602001908152602001600020604051806101800160405290816000820160009054906101000a900473ffffffffffffffffffffffffffffffffffffffff1673ffffffffffffffffffffffffffffffffffffffff1673ffffffffffffffffffffffffffffffffffffffff168152602001600182018054610d8c90612027565b80601f0160208091040260200160405190810160405280929190818152602001828054610db890612027565b8015610e055780601f10610dda57610100808354040283529160200191610e05565b820191906000526020600020905b815481529060010190602001808311610de857829003601f168201915b50505050508152602001600282018054610e1e90612027565b80601f0160208091040260200160405190810160405280929190818152602001828054610e4a90612027565b8015610e975780601f10610e6c57610100808354040283529160200191610e97565b820191906000526020600020905b815481529060010190602001808311610e7a57829003601f168201915b50505050508152602001600382018054610eb090612027565b80601f0160208091040260200160405190810160405280929190818152602001828054610edc90612027565b8015610f295780601f10610efe57610100808354040283529160200191610f29565b820191906000526020600020905b815481529060010190602001808311610f0c57829003601f168201915b50505050508152602001600482018054610f4290612027565b80601f0160208091040260200160405190810160405280929190818152602001828054610f6e90612027565b8015610fbb5780601f10610f9057610100808354040283529160200191610fbb565b820191906000526020600020905b815481529060010190602001808311610f9e57829003601f168201915b50505050508152602001600582018054610fd490612027565b80601f016020809104026020016040519081016040528092919081815260200182805461100090612027565b801561104d5780601f106110225761010080835404028352916020019161104d565b820191906000526020600020905b81548152906001019060200180831161103057829003601f168201915b5050505050815260200160068201805461106690612027565b80601f016020809104026020016040519081016040528092919081815260200182805461109290612027565b80156110df5780601f106110b4576101008083540402835291602001916110df565b820191906000526020600020905b8154815290600101906020018083116110c257829003601f168201915b505050505081526020016007820180546110f890612027565b80601f016020809104026020016040519081016040528092919081815260200182805461112490612027565b80156111715780601f1061114657610100808354040283529160200191611171565b820191906000526020600020905b81548152906001019060200180831161115457829003601f168201915b5050505050815260200160088201805461118a90612027565b80601f01602080910402602001604051908101604052809291908181526020018280546111b690612027565b80156112035780601f106111d857610100808354040283529160200191611203565b820191906000526020600020905b8154815290600101906020018083116111e657829003601f168201915b5050505050815260200160098201805461121c90612027565b80601f016020809104026020016040519081016040528092919081815260200182805461124890612027565b80156112955780601f1061126a57610100808354040283529160200191611295565b820191906000526020600020905b81548152906001019060200180831161127857829003601f168201915b50505050508152602001600a820180546112ae90612027565b80601f01602080910402602001604051908101604052809291908181526020018280546112da90612027565b80156113275780601f106112fc57610100808354040283529160200191611327565b820191906000526020600020905b81548152906001019060200180831161130a57829003601f168201915b50505050508152602001600b8201805461134090612027565b80601f016020809104026020016040519081016040528092919081815260200182805461136c90612027565b80156113b95780601f1061138e576101008083540402835291602001916113b9565b820191906000526020600020905b81548152906001019060200180831161139c57829003601f168201915b5050505050815250509050806000015181602001518260400151836060015184608001518560a001518660c001518760e001518861010001518961012001518a61014001518b61016001519c509c509c509c509c509c509c509c509c509c509c509c505091939597999b5091939597999b565b6000548310611470576040517f08c379a000000000000000000000000000000000000000000000000000000000815260040161146790612399565b60405180910390fd5b6001600084815260200190815260200160002060000160009054906101000a900473ffffffffffffffffffffffffffffffffffffffff1673ffffffffffffffffffffffffffffffffffffffff163373ffffffffffffffffffffffffffffffffffffffff1614611514576040517f08c379a000000000000000000000000000000000000000000000000000000000815260040161150b906126b8565b60405180910390fd5b6002600084815260200190815260200160002060405180606001604052803373ffffffffffffffffffffffffffffffffffffffff16815260200183815260200184815250908060018154018082558091505060019003906000526020600020906003020160009091909190915060008201518160000160006101000a81548173ffffffffffffffffffffffffffffffffffffffff021916908373ffffffffffffffffffffffffffffffffffffffff16021790555060208201518160010190816115dd9190612204565b5060408201518160020190816115f39190612204565b505050505050565b508054600082556003029060005260206000209081019061161c9190611748565b50565b8280548282559060005260206000209060030281019282156116f75760005260206000209160030282015b828111156116f65782826000820160009054906101000a900473ffffffffffffffffffffffffffffffffffffffff168160000160006101000a81548173ffffffffffffffffffffffffffffffffffffffff021916908373ffffffffffffffffffffffffffffffffffffffff160217905550600182018160010190816116cf91906124c9565b50600282018160020190816116e491906124c9565b5050509160030191906003019061164a565b5b5090506117049190611748565b5090565b50805461171490612027565b6000825580601f106117265750611745565b601f01602090049060005260206000209081019061174491906117a6565b5b50565b5b808211156117a257600080820160006101000a81549073ffffffffffffffffffffffffffffffffffffffff02191690556001820160006117899190611708565b6002820160006117999190611708565b50600301611749565b5090565b5b808211156117bf5760008160009055506001016117a7565b5090565b6000819050919050565b6117d6816117c3565b82525050565b60006020820190506117f160008301846117cd565b92915050565b6000604051905090565b600080fd5b600080fd5b600080fd5b600080fd5b6000601f19601f8301169050919050565b7f4e487b7100000000000000000000000000000000000000000000000000000000600052604160045260246000fd5b61185e82611815565b810181811067ffffffffffffffff8211171561187d5761187c611826565b5b80604052505050565b60006118906117f7565b905061189c8282611855565b919050565b600067ffffffffffffffff8211156118bc576118bb611826565b5b6118c582611815565b9050602081019050919050565b82818337600083830152505050565b60006118f46118ef846118a1565b611886565b9050828152602081018484840111156119105761190f611810565b5b61191b8482856118d2565b509392505050565b600082601f8301126119385761193761180b565b5b81356119488482602086016118e1565b91505092915050565b60008060008060008060008060008060006101608c8e03121561197757611976611801565b5b60008c013567ffffffffffffffff81111561199557611994611806565b5b6119a18e828f01611923565b9b505060208c013567ffffffffffffffff8111156119c2576119c1611806565b5b6119ce8e828f01611923565b9a505060408c013567ffffffffffffffff8111156119ef576119ee611806565b5b6119fb8e828f01611923565b99505060608c013567ffffffffffffffff811115611a1c57611a1b611806565b5b611a288e828f01611923565b98505060808c013567ffffffffffffffff811115611a4957611a48611806565b5b611a558e828f01611923565b97505060a08c013567ffffffffffffffff811115611a7657611a75611806565b5b611a828e828f01611923565b96505060c08c013567ffffffffffffffff811115611aa357611aa2611806565b5b611aaf8e828f01611923565b95505060e08c013567ffffffffffffffff811115611ad057611acf611806565b5b611adc8e828f01611923565b9450506101008c013567ffffffffffffffff811115611afe57611afd611806565b5b611b0a8e828f01611923565b9350506101208c013567ffffffffffffffff811115611b2c57611b2b611806565b5b611b388e828f01611923565b9250506101408c013567ffffffffffffffff811115611b5a57611b59611806565b5b611b668e828f01611923565b9150509295989b509295989b9093969950565b611b82816117c3565b8114611b8d57600080fd5b50565b600081359050611b9f81611b79565b92915050565b600060208284031215611bbb57611bba611801565b5b6000611bc984828501611b90565b91505092915050565b600081519050919050565b600082825260208201905092915050565b6000819050602082019050919050565b600073ffffffffffffffffffffffffffffffffffffffff82169050919050565b6000611c2982611bfe565b9050919050565b611c3981611c1e565b82525050565b600081519050919050565b600082825260208201905092915050565b60005b83811015611c79578082015181840152602081019050611c5e565b60008484015250505050565b6000611c9082611c3f565b611c9a8185611c4a565b9350611caa818560208601611c5b565b611cb381611815565b840191505092915050565b6000606083016000830151611cd66000860182611c30565b5060208301518482036020860152611cee8282611c85565b91505060408301518482036040860152611d088282611c85565b9150508091505092915050565b6000611d218383611cbe565b905092915050565b6000602082019050919050565b6000611d4182611bd2565b611d4b8185611bdd565b935083602082028501611d5d85611bee565b8060005b85811015611d995784840389528151611d7a8582611d15565b9450611d8583611d29565b925060208a01995050600181019050611d61565b50829750879550505050505092915050565b60006020820190508181036000830152611dc58184611d36565b905092915050565b60008060408385031215611de457611de3611801565b5b6000611df285828601611b90565b9250506020611e0385828601611b90565b9150509250929050565b611e1681611c1e565b82525050565b600082825260208201905092915050565b6000611e3882611c3f565b611e428185611e1c565b9350611e52818560208601611c5b565b611e5b81611815565b840191505092915050565b600061018082019050611e7c600083018f611e0d565b8181036020830152611e8e818e611e2d565b90508181036040830152611ea2818d611e2d565b90508181036060830152611eb6818c611e2d565b90508181036080830152611eca818b611e2d565b905081810360a0830152611ede818a611e2d565b905081810360c0830152611ef28189611e2d565b905081810360e0830152611f068188611e2d565b9050818103610100830152611f1b8187611e2d565b9050818103610120830152611f308186611e2d565b9050818103610140830152611f458185611e2d565b9050818103610160830152611f5a8184611e2d565b90509d9c50505050505050505050505050565b600080600060608486031215611f8657611f85611801565b5b6000611f9486828701611b90565b935050602084013567ffffffffffffffff811115611fb557611fb4611806565b5b611fc186828701611923565b925050604084013567ffffffffffffffff811115611fe257611fe1611806565b5b611fee86828701611923565b9150509250925092565b7f4e487b7100000000000000000000000000000000000000000000000000000000600052602260045260246000fd5b6000600282049050600182168061203f57607f821691505b60208210810361205257612051611ff8565b5b50919050565b60008190508160005260206000209050919050565b60006020601f8301049050919050565b600082821b905092915050565b6000600883026120ba7fffffffffffffffffffffffffffffffffffffffffffffffffffffffffffffffff8261207d565b6120c4868361207d565b95508019841693508086168417925050509392505050565b6000819050919050565b60006121016120fc6120f7846117c3565b6120dc565b6117c3565b9050919050565b6000819050919050565b61211b836120e6565b61212f61212782612108565b84845461208a565b825550505050565b600090565b612144612137565b61214f818484612112565b505050565b5b818110156121735761216860008261213c565b600181019050612155565b5050565b601f8211156121b85761218981612058565b6121928461206d565b810160208510156121a1578190505b6121b56121ad8561206d565b830182612154565b50505b505050565b600082821c905092915050565b60006121db600019846008026121bd565b1980831691505092915050565b60006121f483836121ca565b9150826002028217905092915050565b61220d82611c3f565b67ffffffffffffffff81111561222657612225611826565b5b6122308254612027565b61223b828285612177565b600060209050601f83116001811461226e576000841561225c578287015190505b61226685826121e8565b8655506122ce565b601f19841661227c86612058565b60005b828110156122a45784890151825560018201915060208501945060208101905061227f565b868310156122c157848901516122bd601f8916826121ca565b8355505b6001600288020188555050505b505050505050565b7f4e487b7100000000000000000000000000000000000000000000000000000000600052601160045260246000fd5b6000612310826117c3565b91507fffffffffffffffffffffffffffffffffffffffffffffffffffffffffffffffff8203612342576123416122d6565b5b600182019050919050565b7f496e76616c6964207265706f727420696e646578000000000000000000000000600082015250565b6000612383601483611e1c565b915061238e8261234d565b602082019050919050565b600060208201905081810360008301526123b281612376565b9050919050565b7f506c6561736520656e7375726520796f752061726520746865206f776e65722060008201527f6f66207468697320726571756573740000000000000000000000000000000000602082015250565b6000612415602f83611e1c565b9150612420826123b9565b604082019050919050565b6000602082019050818103600083015261244481612408565b9050919050565b6000612456826117c3565b9150612461836117c3565b9250828203905081811115612479576124786122d6565b5b92915050565b600061248a826117c3565b9150612495836117c3565b92508282019050808211156124ad576124ac6122d6565b5b92915050565b6000815490506124c281612027565b9050919050565b8181036124d75750506125af565b6124e0826124b3565b67ffffffffffffffff8111156124f9576124f8611826565b5b6125038254612027565b61250e828285612177565b6000601f83116001811461253d576000841561252b578287015490505b61253585826121e8565b8655506125a8565b601f19841661254b87612058565b965061255686612058565b60005b8281101561257e57848901548255600182019150600185019450602081019050612559565b8683101561259b5784890154612597601f8916826121ca565b8355505b6001600288020188555050505b5050505050505b565b60006125bc826117c3565b9150600082036125cf576125ce6122d6565b5b600182039050919050565b7f496e76616c6964207265706f7274204944000000000000000000000000000000600082015250565b6000612610601183611e1c565b915061261b826125da565b602082019050919050565b6000602082019050818103600083015261263f81612603565b9050919050565b7f596f7520617265206e6f7420746865206f776e6572206f66207468697320726560008201527f706f727400000000000000000000000000000000000000000000000000000000602082015250565b60006126a2602483611e1c565b91506126ad82612646565b604082019050919050565b600060208201905081810360008301526126d181612695565b9050919050565b7f496e76616c696420696d61676520696e64657800000000000000000000000000600082015250565b600061270e601383611e1c565b9150612719826126d8565b602082019050919050565b6000602082019050818103600083015261273d81612701565b9050919050565b7f4e487b7100000000000000000000000000000000000000000000000000000000600052603260045260246000fd5b7f4e487b7100000000000000000000000000000000000000000000000000000000600052603160045260246000fdfea264697066735822122015d998279417b391271eb9e200178516f7a3ccf84abf75e5c4c953d3e4bf334664736f6c634300081b0033",
    "linkReferences": {},
    "deployedLinkReferences": {}
}